:1000000075C00000AAC00000A8C00000A6C0000083
:10001000A4C00000A2C00000A0C000009EC000005C
:100020009CC000009AC0000098C000000C94CD084D
:100030000C94760992C0000090C000008EC00000B1
:100040008CC000008AC0000088C000003BC50000D2
:1000500084C0000082C0000080C00000F9C400001D
:100060007CC000007AC0000078C0000076C00000AC
:1000700074C000000E0355005300420032004100DE
:1000800058000000120358006500760065006C00FF
:1000900061006200730000000403090409023E00CD
:1000A000020100C03209040000010202010005241F
:1000B000001001042402060524060001070582033E
:1000C0000800FF09040100020A00000007050402FD
:1000D0001000010705830210000112011001020047
:1000E0000008D016A70601000102DC0111241FBE82
:1000F000CFEFD4E0DEBFCDBF04B603FE18C08091C1
:10010000080290910902A0910A02B0910B028F3E61
:100110009E4BAD4ABB4059F410920802109209025E
:1001200010920A0210920B02E0E0F8E3099511E048
:10013000A0E0B1E0E0E0F7E102C005900D92AC3143
:10014000B107D9F722E0ACE1B1E001C01D92A830BF
:10015000B207E1F7F8D40C947E0B52CFAF92BF9266
:10016000CF92DF92EF92FF920F931F93CF93DF9383
:100170001F92CDB7DEB7F82EC62ED42E042F10E076
:1001800001501F4F080F111D8FEF798383D18FEF1F
:1001900081D18DEF7FD18D2D8E5F7CD18F2D7AD146
:1001A000AC2C7981B72E09C07501F50181915F01F1
:1001B00071D1F7018081080F111D8A2D8C198D15C1
:1001C00098F3802F80950F90DF91CF911F910F9121
:1001D000FF90EF90DF90CF90BF90AF905BC1CF9337
:1001E000C82FC4D110921C0104C080911C0183331C
:1001F00020F4809125018C17C0F3C0D120912501F6
:100200002C1310C0EDEDF1E080E092E09E1B02C0E7
:100210003191830F392F3E0F3217D0F321E030E0B8
:100220008F3F11F020E030E0C901CF9108951F9376
:10023000CF93DF93D82F162FC42F109225018FEF65
:1002400078D28FEF76D28D2F74D284E072D282E092
:1002500070D2812F6ED28C2F6CD28D2F90E00696AB
:10026000810F911D8C0F911D809563D28C2F8A5F19
:10027000DF91CF911F91B3CF7F928F929F92AF92D8
:10028000BF92CF92DF92EF92FF920F931F93CF9383
:10029000DF93EC01862E81E08093240178809980A1
:1002A0008A948A948FEFF6D08FEFF4D08DEFF2D04E
:1002B000882D692D0E94380BA82E8E5FEBD080E030
:1002C000E9D0AA947E0182E0E80EF11C870185E066
:1002D000B82E90EEC92E91E0D92E29C0492D672D58
:1002E000F80181918F01A3DF892BE9F0C0EED1E005
:1002F0000AC08991A80ECED0FFE0FB1510F0B39490
:1003000002C0E6D0B12C8C2F8C19891590F30FC048
:100310008FEFC0D08FE08B1510F0B39402C0D8D00F
:10032000B12CCF5F01C0C0E0C911F2CFA918802F56
:100330008E19881598F28A2D8095ACD010922401E0
:10034000DF91CF911F910F91FF90EF90DF90CF90B1
:10035000BF90AF909F908F907F900895FF920F93E2
:100360001F93CF93DF9300D000D0CDB7DEB7F62E2A
:1003700091E0998392E49A8394E09B839DEF9C8320
:10038000082F10E0C801860F911D059728F040E066
:1003900060E070E088E0E2DEBE016F5F7F4F600FDB
:1003A000711F4F2D80E0DADE0F900F900F900F90AD
:1003B000DF91CF911F910F91FF900895292F33273F
:1003C0002230310539F02330310549F02130310533
:1003D00021F128C0EEE3F0E08CE990E027C09927F6
:1003E0008130910561F08230910581F0892BD1F443
:1003F000E8E9F0E0E491F0E088E990E017C0E4E893
:10040000F0E0E491F0E084E890E010C0E4E7F0E090
:10041000E491F0E084E790E009C0E2E1F0E08AEDE9
:1004200090E004C0E0E0F0E080E090E0DA018D933D
:100430009C93CF0108959091E00091609093E0002B
:10044000F89490E0EFEFF9EF3197F1F700C000007A
:100450009F5F9038B9F7882361F08FEE9EEBADEA8D
:10046000BBE08093080290930902A0930A02B09324
:100470000B022CE088E190E00FB6F894A8958093E9
:1004800060000FBE20936000FFCF9BB19F79982B37
:100490009BB90895E8EAF1E0A081B1818C93808155
:1004A00091810196918380832681378182179307FA
:1004B00021F484819581918380832FB7F89482857C
:1004C00093850196938782872FBF10921D0108950F
:1004D00083E08093E9008091E80080FF46C08FB7F9
:1004E000F8944091B2018FBF4423A1F1403120F430
:1004F00080911D018530C8F110921D014131E0F05D
:1005000040E11AC0F901A281B3815D91B383A28356
:1005100086819781A817B90721F4848195819383F7
:1005200082836FB7F894828593850197938782873A
:100530006FBF5093F10002C028EA31E0415010F73C
:100540008091E80085FB882780F991E089278093D6
:10055000260106C080912601882339F010922601D9
:100560008091E8008E778093E80008958091C8001C
:1005700086FFFCCF80E98093C900089588E08093CE
:10058000C90008952F923F924F925F926F927F928F
:100590008F929F92AF92BF92CF92DF92EF92FF9293
:1005A0000F931F93CF93DF93CDB7DEB728970FB686
:1005B000F894DEBF0FBECDBF6B017C011092C90065
:1005C0001092C80086E08093CA00C701B60122E0FD
:1005D00030E040E050E00E94630B29013A01CA017B
:1005E000B901605C7D4B804F9F4FA70196010E942F
:1005F000410BDA01C9010197A109B10989839A83E5
:10060000AB83BC8384E0220F331F441F551F8A95A0
:10061000D1F7812C94E2992E94EFA92EB12CC5012B
:10062000B4010E94410B890148875F8319014D8302
:100630005E83C301B20160587B47814E9F4FA70183
:1006400096010E94410B44244A94542C3201420EDC
:10065000531E641E751E63E0220F331F441F551F77
:100660006A95D1F7C501B4010E94410B722F632F27
:100670004801A884BF808C149D04AE04BF0414F408
:1006800046015701C101AD81BE81C816D906EA06EF
:10069000FB0614F4D701C601881A990AAA0ABB0AF4
:1006A000072F162F9A010C151D052E053F0514F472
:1006B00097018601872F962FDA01C816D906EA0618
:1006C000FB0614F4D701C601081B190B2A0B3B0BC0
:1006D000081519052A053B053CF0A981BA81B0939C
:1006E000CD00A093CC0009C05092CD004092CC0028
:1006F0008091C80082608093C80080E98093C9001F
:1007000028960FB6F894DEBF0FBECDBFDF91CF9114
:100710001F910F91FF90EF90DF90CF90BF90AF901F
:100720009F908F907F906F905F904F903F902F9011
:1007300008959091C80095FFFCCF8093CE008091E2
:10074000C80080648093C8000895FF920F931F93A0
:10075000CF93DF93F82E04EB11E0E80102C08991FA
:10076000E8DF8C2F801B8F15D0F3DF91CF911F9185
:100770000F91FF90089580912001E82FF0E0ED5453
:10078000FE4F90819F3F51F48150DFDF81E08093E5
:1007900023018093200110921E010895D6DF10924C
:1007A00023010895AF92BF92CF92DF92EF92FF9212
:1007B0000F931F93CF93DF9380E091E049D2D82F1E
:1007C000882309F41FC188E08093C900C0E004E0D9
:1007D00017E076E0F72EE5E0EE2EF2E0DF2EA3E064
:1007E000CA2E80912301833009F458C020F481304F
:1007F000E9F0A8F50CC0853009F49EC008F463C088
:10080000863009F4A5C0873009F0F7C0AFC080E09A
:1008100091E045D28093B4018F3F31F481E0809321
:1008200023018093200116C084DFE7C0B09020012F
:1008300080E091E034D2EB2DF0E0EC54FE4F808369
:100840008B2D8F5F809320019091B5019F3F29F4FC
:10085000D092230110921E01D0C077DFCCC0B0909F
:10086000200180E091E01BD2EB2DF0E0EC54FE4F34
:1008700080838B2D8F5F809320018091B601982F0C
:100880009D5F923018F4C0922301E4CF8F3F21F492
:10089000B09220014EDFDECF6EDFAFC0B0902001FE
:1008A00080E091E0FCD1EB2DF0E0EC54FE4F808332
:1008B000B394B09220018091B7018250813260F7E9
:1008C00000932301C7CFB090200180E091E0E7D1F1
:1008D000EB2DF0E0EC54FE4F8083B394B0922001F6
:1008E0009091B8018091B601943851F4109323018E
:1008F00090E08C579F4F2091B701820F911D17C038
:100900008D3F51F6963021F4E09223015E9AA2CFFA
:10091000983019F4F09223019DCF923009F0BCCFAA
:10092000109323018091B70190E081509F4F9093E5
:100930002201809321018ECF80E091E0B0D180939D
:10094000B9018A3F09F0A8CF80E09FDD80E00CC0AC
:1009500080E091E0A4D18093B901883F09F09CCF59
:100960005E9880E092DD81E066DD47C0A0902001C6
:10097000B12C80E091E093D1F501EC54FE4F8083DF
:1009800040912001E42FF0E0EC54FE4F8081209153
:10099000210130912201280F311D30932201209333
:1009A00021014F5F4093200110921E016091B70119
:1009B000862F90E0039650E084179507F4F42F3FBC
:1009C00009F06ACF8091B801843881F48091BA012E
:1009D0008150863030F040E060E070E088E0BEDBBF
:1009E0000AC0625089EB91E047DC05C06091BA0112
:1009F0008091B901B3DC10922301CF5FCD1708F4C9
:100A0000F0CEB4DD809123018823B9F080911E01DE
:100A1000853698F088E08093C9008091200195DEAA
:100A200010922301DF91CF911F910F91FF90EF90D2
:100A3000DF90CF90BF90AF9099CDDF91CF911F9174
:100A40000F91FF90EF90DF90CF90BF90AF900895FF
:100A50001F920F920FB60F9211242F933F934F9333
:100A60005F936F937F938F939F93AF93BF93EF9316
:100A7000FF938091CE0090912401911102C00ADD74
:100A800010C090912501903250F490912501E92FEA
:100A9000F0E0E552FE4F80839F5F90932501109216
:100AA0001C01FF91EF91BF91AF919F918F917F9129
:100AB0006F915F914F913F912F910F900FBE0F90CB
:100AC0001F9018951F920F920FB60F9211248F93BB
:100AD00080911E018F5F80931E0180911D018F5FA9
:100AE00080931D0180911C018F5F80931C018F9169
:100AF0000F900FBE0F901F90189584B7877F84BF0B
:100B000088E10FB6F89480936000109260000FBEE9
:100B100090E080E80FB6F8948093610090936100B4
:100B20000FBE8AB180668AB98BB18F798BB926D313
:100B300082E084BD85BD87E287BDEEE6F0E080817E
:100B4000826080830895D9DFE8EAF1E02FB7F89456
:100B500087E291E09183808393838283958384836A
:100B600087EA91E09783868380E890E09187808789
:100B7000138612862FBF80E088DC789453985B9AA6
:100B80008091FF018430E1F70DDEA2DC55D5F8CF6E
:100B900080E47BCC80E079CC80E091E034D0882385
:100BA00011F080E201C080E670CC80E091E0A5C049
:100BB000CF93DF93EC016C897D898E899F89E2DC7C
:100BC0008C899D89AE89BF89803B9440A105B10580
:100BD00019F481E080931F01DF91CF910895CF93A5
:100BE000FC01C089C1708091A701882341F0C11127
:100BF00006C080911F01882311F081E01CDCC093A6
:100C0000A701CF910895CF93DF93EC014096FC01AB
:100C10008BE0DF011D928A95E9F782E08C8389875A
:100C200083E08E8761E0CE01019610D2882361F0C7
:100C300061E0CE0106960AD2882331F061E0CE0150
:100C40000B96DF91CF9102C280E0DF91CF910895A2
:100C50002091FF01243009F01AC0FC014489558914
:100C600066897789452B462B472B89F086818F70C3
:100C70008093E9008091E80082FF09C08091F20032
:100C8000811108C08091E8008B778093E80020E014
:100C900030E003C02091F20030E0C90108952091B6
:100CA000FF01243019F02FEF3FEF24C0FC014489ED
:100CB000558966897789452B462B472BA1F3868179
:100CC0008F708093E9008091E80082FFECCF8091E3
:100CD000F200882321F02091F10030E002C02FEFD4
:100CE0003FEF8091F200811105C08091E8008B7781
:100CF0008093E800C90108950895CF93DF93EC0134
:100D00008091E80083FFA7C0888190E020910402D1
:100D1000309105022817390709F09DC08091010222
:100D2000813261F020F4803209F095C03DC08232FA
:100D300009F46DC0833209F08EC07DC0809100023D
:100D4000813A09F088C08091E800877F8093E800AD
:100D50008091E80080FFFCCF4C895D896E897F8996
:100D60004093F100BB27A72F962F852F8093F1008A
:100D7000CB01AA27BB278093F100472F5527662771
:100D800077274093F100888D8093F100898D8093BF
:100D9000F1008A8D8093F1008091E8008E77809336
:100DA000E800DF91CF9190C180910002813209F07B
:100DB00052C08091E800877F8093E80005C0809151
:100DC000FF01882309F447C08091E80082FFF7CF34
:100DD0003091F1002091F1009091F1008091F100AB
:100DE0003C8B2D8B9E8B8F8B8091F100888F809117
:100DF000F100898F8091F1008A8F8091E8008B77D4
:100E00008093E80061D1CE01DF91CF91D1CE809166
:100E10000002813201F58091E800877F8093E8002D
:100E200053D18091020290910302998B888BCE015D
:100E3000DF91CF91D4CE80910002813261F4809114
:100E4000E800877F8093E8003FD160910202CE01E5
:100E5000DF91CF9151CFDF91CF910895209106027C
:100E6000309107022617370748F06115710539F4EC
:100E70002091E8002E772093E80001C0B9019C0181
:100E800080E034C09091FF01992309F443C095306C
:100E900009F442C09091E80093FD3AC09091E800B7
:100EA00092FD30C09091E80090FF20C08091F20048
:100EB00090E0F901821B930B05C021912093F10072
:100EC000615071099F01280F391F6115710519F0D3
:100ED0002830310590F381E02830310509F080E0B9
:100EE0009091E8009E779093E8009F01611571054D
:100EF00049F68111C7CF06C08091FF01882351F0C8
:100F0000853051F08091E80082FFF6CF80E00895AF
:100F100081E0089582E0089583E00895209106021B
:100F2000309107022617370748F06115710539F42B
:100F30002091E8002E772093E80001C0B9019C01C0
:100F400080E035C09091FF01992309F444C09530A9
:100F500009F443C09091E80093FD3BC09091E800F4
:100F600092FD31C09091E80090FF21C08091F20085
:100F700090E0F901821B930B06C024912093F100AD
:100F80003196615071099C012E0F3F1F611571054B
:100F900019F02830310588F381E02830310509F057
:100FA00080E09091E8009E779093E8009F016115A2
:100FB000710541F68111C6CF06C08091FF018823DB
:100FC00051F0853051F08091E80082FFF6CF80E04B
:100FD000089581E0089582E0089583E00895982FB0
:100FE0002CC09093E900981739F07091EC00209193
:100FF000ED005091F00003C0242F762F50E021FD2A
:1010000002C09F5F1AC03091EB003E7F3093EB002F
:101010003091ED003D7F3093ED003091EB00316079
:101020003093EB007093EC002093ED005093F000B0
:101030002091EE0027FDE5CF07C0953090F28F702C
:101040008093E90081E0089580E008950F931F9355
:10105000CF93DF93062FEC0110E02EC09881911101
:1010600003C01F5F259628C02C81E981FA816B811E
:10107000892F8F70853010F080E021C0223010F071
:1010800056E001C052E028E030E040E003C04F5F8E
:10109000220F331F2E173F07D0F34295407F452B79
:1010A000991F9927991F6295660F660F607C692BBF
:1010B00096DF8111D6CFE0CF1013D0CF81E0DF9142
:1010C000CF911F910F9108958091000287FD05C077
:1010D0008091E80080FF0EC012C08091E80082FD80
:1010E00005C08091FF018111F8CF08958091E8003B
:1010F0008B7708C08091FF018111EACF089580911C
:10110000E8008E778093E800089541D043D0809125
:10111000D8008F778093D8008091D8008068809322
:10112000D8008091D8008F7D8093D80084E089BD5D
:1011300086E089BD09B400FEFDCF1092FF01109238
:10114000FB011092FD011092FC0142E060E080E0A2
:1011500046DF8091E1008E7F8093E1008091E20084
:1011600081608093E2008091E20088608093E200D9
:101170008091E0008E7F8093E0000895E3E6F0E048
:1011800080818E7F808381E08093FE01BECF1092AC
:10119000E20008951092E10008951F920F920FB699
:1011A0000F9211242F933F934F935F936F937F93ED
:1011B0008F939F93AF93BF93EF93FF938091E10041
:1011C00082FF0AC08091E20082FF06C08091E100A8
:1011D0008B7F8093E1002FD28091E10080FF17C0C8
:1011E0008091E20080FF13C08091E2008E7F8093A7
:1011F000E2008091E20080618093E2008091D8005B
:1012000080628093D80019BC1092FF01C3DC8091EA
:10121000E10084FF2FC08091E20084FF2BC084E0B6
:1012200089BD86E089BD09B400FEFDCF8091D8005C
:101230008F7D8093D8008091E1008F7E8093E100C4
:101240008091E2008F7E8093E2008091E2008160D5
:101250008093E2008091FB01882311F084E007C0B5
:101260008091E30087FF02C083E001C081E08093AA
:10127000FF018EDC8091E10083FF27C08091E200B6
:1012800083FF23C08091E100877F8093E10082E0AB
:101290008093FF011092FB018091E1008E7F80938B
:1012A000E1008091E2008E7F8093E2008091E20075
:1012B00080618093E20042E060E080E090DE809117
:1012C000F00088608093F000B6D1FF91EF91BF915C
:1012D000AF919F918F917F916F915F914F913F91CE
:1012E0002F910F900FBE0F901F9018951F920F9285
:1012F0000FB60F9211242F933F934F935F936F93E9
:101300007F938F939F93AF93BF93CF93EF93FF936D
:101310008091E9008F709091EC0090FF02C090E8FE
:1013200001C090E0C92FC82B1092E9008091F00015
:10133000877F8093F00078941CD01092E900809110
:10134000F00088608093F000CF70C093E900FF91B7
:10135000EF91CF91BF91AF919F918F917F916F91BD
:101360005F914F913F912F910F900FBE0F901F9063
:1013700018951F93CF93DF93CDB7DEB7AC970FB619
:10138000F894DEBF0FBECDBFE0E0F2E08091F10047
:10139000819322E0E830F207C9F707DC8091E8008A
:1013A00083FF31C18091000290910102953009F4D0
:1013B00087C038F49130B1F170F0933009F023C157
:1013C00031C0983009F4F4C0993009F400C1963066
:1013D00009F019C19BC0803821F0823809F013C18F
:1013E00008C08091FC019091FD01992389F08260F1
:1013F0000FC080910402909105028F70992780930D
:10140000E9008091EB0085FB882780F91092E900C4
:101410009091E800977F9093E8008093F1001092FC
:10142000F100D1C0882319F0823009F0ECC08F712F
:1014300021F0823009F0E7C00BC0809102028130B8
:1014400009F0E1C0933009F080E08093FD012FC0E6
:101450008091020281112BC08091040290910502BB
:101460008F709927009709F4CEC08093E9002091EE
:10147000EB0020FF1CC020910102233021F4809159
:10148000EB00806212C09091EB0090619093EB00B2
:1014900021E030E001C0220F8A95EAF72093EA00AC
:1014A0001092EA008091EB0088608093EB0010922C
:1014B000E9008091E800877F8093E80005DEA3C003
:1014C0008111A1C080910202909103028F77992728
:1014D000182F9091E3009078982B9093E3008091DF
:1014E000E800877F8093E800EFDD8091E80080FFCF
:1014F000FCCF8091E30080688093E300112311F01A
:1015000083E001C082E08093FF017DC0805882307B
:1015100008F079C080910202909103028C3D23E093
:10152000920771F583E08A838AE289834FB7F89442
:10153000DE01139620E03EE051E2E32FF0E050930D
:101540005700E49120FF03C0E295EF703F5FEF701A
:101550008E2F90E0EA3010F0C79601C0C0968D93B0
:101560009D932F5F243149F74FBF8091E800877F1B
:101570008093E8006AE270E0CE0101966FDC12C051
:10158000AE01455D5F4F609104020E94DE0100974D
:10159000D1F12091E800277F2093E800BC018BA5C2
:1015A0009CA5BCDC8091E8008B778093E8002BC081
:1015B000803849F58091E800877F8093E80080912A
:1015C000FB018093F1008091E8008E7775CF811147
:1015D0001AC0909102029230B0F48091E800877FA7
:1015E0008093E8009093FB016FDD8091FB018111F6
:1015F00004C08091E30087FF02C084E001C081E065
:101600008093FF01C9DA8091E80083FF0AC08091CE
:10161000E800877F8093E8008091EB0080628093F0
:10162000EB00AC960FB6F894DEBF0FBECDBFDF91D6
:10163000CF911F9108950895CF938091FF01882342
:10164000A9F08091E9008F709091EC0090FF02C0AA
:1016500090E801C090E0C92FC82B1092E90080915A
:10166000E80083FD86DECF70C093E900CF91089536
:10167000002480FD060E660F11F08695D1F7802DAF
:101680000895A1E21A2EAA1BBB1BFD010DC0AA1FC3
:10169000BB1FEE1FFF1FA217B307E407F50720F0DB
:1016A000A21BB30BE40BF50B661F771F881F991F56
:1016B0001A9469F760957095809590959B01AC019F
:1016C000BD01CF010895052E97FB16F4009406D0B6
:1016D00057FD0CD0D6DF07FC09D07EF4909580959D
:1016E000709561957F4F8F4F9F4F0895509540950E
:1016F000309521953F4F4F4F5F4F0895F894FFCF9E
:1017000000831000000104100000018208000001A5
:0C171000000000000000000000000000CD
:00000001FF
